:020000040800F2
:1000000078210020990100083B200008E71D000826
:10001000392000088104000849250008000000007C
:1000200000000000000000000000000001010008C6
:10003000BB0400080000000045010008452000083E
:10004000B3010008B3010008B3010008B3010008C0
:10005000B3010008B3010008B3010008B3010008B0
:10006000B3010008B3010008B301000885040008CB
:10007000B3010008B3010008B3010008B301000890
:10008000B3010008B3010008B3010008B301000880
:10009000B3010008B3010008B3010008B301000870
:1000A000B3010008D9200008B3010008B30100081B
:1000B000B3010008B3010008B3010008B301000850
:1000C000B3010008B3010008B3010008B301000840
:1000D000B3010008B30100083D250008B301000882
:1000E000B3010008B3010008B3010008DFF80CD029
:1000F00000F09EF800480047D12700087821002032
:10010000224B19680868B0E8F00F80F30988BFF344
:100110006F8F4FF0000080F311884EF00D0E704786
:100120000000000006480068006880F3088862B696
:1001300061B6BFF34F8FBFF36F8F00DF00BF00BF0B
:1001400008ED00E0EFF30980BFF36F8F0F4B1A68E3
:1001500020E9F00F106008B54FF0500080F31188CF
:10016000BFF34F8FBFF36F8F03F01EFA4FF0000005
:1001700080F31188BDE8084019680868B0E8F00FFE
:1001800080F30988BFF36F8F704700BF28000020FD
:10019000EFF3058070470000064880470648004797
:1001A000FEE7FEE7FEE7FEE7FEE7FEE7FEE7FEE727
:1001B000FEE7FEE7D7200008ED00000840EA010353
:1001C0009B0703D009E008C9121F08C0042AFAD20D
:1001D00003E011F8013B00F8013B521EF9D27047D1
:1001E000D2B201E000F8012B491EFBD27047002279
:1001F000F6E710B513460A4604461946FFF7F0FF26
:10020000204610BD30B50B460146002020220124B7
:1002100009E021FA02F59D4205D303FA02F5491BD4
:1002200004FA02F52844151EA2F10102F1DC30BDEA
:10023000064C074D06E0E06840F0010394E8070033
:1002400098471034AC42F6D3FFF754FFAC40000897
:10025000CC40000870B5044600688168C943C907EE
:1002600017D1816821F00101816000F07BFD054616
:100270000AE000BF00F076FD401B022804D9206888
:100280008068C043C00706D020688068C043C007AC
:10029000F0D0002070BDA06A40F01000A062E06ABB
:1002A00040F00100E062012070BD10B50146406AD7
:1002B000826A12F0500F05D0006A026BBDE8104050
:1002C00008461047816A41F40071816201688968BB
:1002D000C1F3424107290CD1017B51B9816A21F454
:1002E00080718162816AC90403D4816A41F001018D
:1002F000816200F063F910BD10B5406A816A41F077
:1003000040018162C16A41F00401C16200F058F904
:1003100010BD10B5406A00F052F910BDF8B50026C6
:100320000446009600688168C943C9072DD08168DA
:1003300041F001018160164816490068B0FBF1F0F8
:1003400000E0401E00900028FBD100F00BFD0546A8
:1003500016E000BF00F006FD401B022810D92068FF
:100360008068C043C0070BD0A06A40F01000A062B4
:10037000E06A40F00100E06284F824600120F8BDEA
:1003800020688068C043C007E4D10020F8BD0000A9
:100390001800002040420F0010B500F0E3FC124CA2
:1003A0002168401AB0F57A7F1DD300F0DBFC206095
:1003B0000E4C0FA11448228802F0D8F8124802F01F
:1003C000E9FE218811A002F0C1F8628812A10E484E
:1003D00002F0CCF80C4802F0DDFE6188BDE8104068
:1003E00013A002F0B3B810BD2000002024000020AC
:1003F00070616765312E616463315F6368302E76AA
:10040000616C3D25640000003A04002061646331A2
:100410005F6368303D25640070616765312E6164FB
:1004200063315F6368312E76616C3D2564000000A6
:10043000616463315F6368313D25640010B502F08B
:10044000BFF901220649074801F056FC00F08AFC7A
:1004500005490860BDE8104004A002F077B800002C
:100460001C000020B001002020000020B4A5C3FE25
:10047000C6C1B3F5CABCBBAFCDEAB3C9000000002A
:10048000FEE70000014800F067BA0000DC00002031
:1004900030B590F840500124AC40C56B6C600468E6
:1004A00063604368102B036803D099600068C260E2
:1004B00030BD9A600068C16030BD704772B6FEE71B
:1004C000F8B50024009490F824202546012A12D083
:1004D000012280F824204A681F23072A0DD20668CB
:1004E000776B521E02EB820293409F430B6893404E
:1004F0001F43776319E00220F8BD06680D2A0AD26F
:10050000376BD21F02EB820293409F430B689340EC
:100510001F43376309E0F76A0D3A02EB820293400A
:100520009F430B6893401F43F7620A6807230668DE
:100530000A2A0AD3F7680A3A02EB420293409F4321
:100540008B6893401F43F76008E0376902EB420273
:1005500093409F438B6893401F4337610A68102A7A
:1005600001D0112A20D1124B02689A4217D1936808
:100570001B0219D4936843F400039360096810299F
:1005800012D10C490C4A0968B1FBF2F101EB81016F
:10059000490000E0491E00910029FBD104E0816A76
:1005A00041F020018162012480F824502046F8BDEA
:1005B000002401401800002040420F00704770479F
:1005C000704700002DE9F0414FF0000704003D4660
:1005D0007ED0A06A002628B9E66284F8246020460E
:1005E00000F07EF82046FFF735FEA16AC90600D468
:1005F00020B1A06A40F01000A06269E0A16A21F475
:10060000885141F00201A1626268E169237B0A43DB
:1006100047EA43010A43A1684FF48077B94209D001
:10062000012907D05FF0000194F814C0BCF1010F5C
:1006300002D00AE03946F7E7F3B1A36A43F020039A
:10064000A362E36A43F00103E3622368D3F804C0C2
:100650002CF4694C4CEA010CC3F804C021688B6887
:10066000DFF870C003EA0C0313438B60A168B94242
:100670000BD0012909D00CE0DFF85CC0A3690CEBBA
:1006800043330B4343F40061DFE7218A0D05A5F5F1
:1006900080152168CB6A23F470032B43CB62216859
:1006A00089680E4B1940914208D1E662A16A21F097
:1006B000020141F00101A162BDE8F081A06A20F0D1
:1006C000020040F01000A062E06A40F00100E06229
:1006D0000120F1E7FDF7E1FF00E0FFFFFE0E1FFF45
:1006E00070B586B0002506460095019502950395E4
:1006F0000068194988422DD11849886940F4007072
:100700008861886900F400700490886940F00400F2
:1007100088618869694600F0040004900320009015
:1007200001900F4800F028FA0F4C0E48C4E900056C
:100730008020C4E9025040002061800060612020D8
:10074000C4E90605204600F0B1F908B1FFF7B6FE8E
:100750003462666206B070BD0024014000100240A1
:100760000008014008000240DC0000202DE9F047AD
:10077000894604463B4900683B4F0E1D904688421F
:1007800001D0B84207D1306810F4702F03D0012592
:100790002846BDE8F08794F8240001280CD00120F9
:1007A00084F824002046FFF7B9FD05004FF0000053
:1007B00004D084F82400EBE70220EAE7A16A40F6BF
:1007C0000162914341F48071A1622168B94218D15C
:1007D000326812F4702F14D0A16A41F48011A16222
:1007E0003168490505D5A16A21F4005141F48051D1
:1007F000A162A16AC9040AD5E16A21F00601E16299
:1008000006E0A26A22F48012A2624968E9E7E06287
:1008100084F82400216A15488862216A1448C86255
:10082000216A1448086321686FF00200086020689C
:10083000816841F480718160216843464A464C31A9
:10084000206A00F061F920688168C1F342410729FC
:10085000816803D041F48011816099E741F4A001DF
:10086000FAE700000024014000280140AB02000824
:1008700013030008F902000810B590F821100022B7
:10088000022905D00421816380F82020012010BDB9
:1008900001680B6823F00E030B6001680B6823F0FE
:1008A00001030B6090F84030C46B012101FA03F39F
:1008B000636080F8211080F82020104610BD0000F1
:1008C00010B590F821100024022903D0042181637F
:1008D00001243DE001680A6822F00E020A60016806
:1008E0000A6822F001020A601A4A0168914201D1A5
:1008F000012121E0174A1432914201D110211BE05D
:10090000144A2832914201D1891515E0114A3C322E
:10091000914201D189140FE00E4A5032914202D126
:100920004FF4803108E00B4A6432914202D14FF417
:10093000801101E04FF08071064A083A51600121B0
:1009400080F82110002180F82010416B01B1884708
:10095000204610BD080002402DE9F05FC16B0C6815
:1009600001680B68D0F840C0042202FA0CF2494D2D
:10097000DFF824A1494E4A4FDFF828B1DFF828E11B
:1009800022422CD05A072AD50A68920603D40A6854
:1009900022F004020A600168A94201D1042219E090
:1009A000514501D1402215E0B14202D14FF480629D
:1009B00010E0B94202D14FF480420BE0594502D118
:1009C0004FF4802206E0714502D14FF4800201E02D
:1009D0004FF080622F4908394A60C16A3BE04FF00E
:1009E000020808FA0CF818EA040F4FF000094FF05B
:1009F000010235D05FEA837832D50B689B0605D4B7
:100A00000B6823F00A030B6080F821200168A942DB
:100A100001D1022219E0514501D1202215E0B14255
:100A200002D14FF4007210E0B94202D14FF40052EB
:100A30000BE0594502D14FF4003206E0714502D176
:100A40004FF4001201E04FF00072124908394A6079
:100A500080F82090816A00291AD0BDE8F05F08472D
:100A6000082505FA0CF5254212D01B0710D50B6896
:100A700023F00E030B6090F84010C36B02FA01F1F3
:100A80005960826380F8212080F82090016BE2E7B2
:100A9000BDE8F09F080002401C0002403000024008
:100AA00044000240580002406C00024030B528B3B8
:100AB00008C8134914221944B1FBF2F18900C1633B
:100AC00010498163022141771A6843F6F0718A4325
:100AD000D0E900142143D0E902452C4321430469A5
:100AE0002143446921438469214311431960002152
:100AF0004163012242770177084630BD012030BDB5
:100B0000F8FFFDBF0000024070B5044690F82000D9
:100B1000002501280CD0012084F8200094F82160E1
:100B20000020012E06D084F820000225284670BD42
:100B3000022070BD022684F82160A0632068066848
:100B400026F0010606602046FFF7A2FCE06A0028B6
:100B50002068016802D041F00E0106E021F0040196
:100B600001602068016841F00A01016020680168A5
:100B700041F001010160D9E72DE9F84FDFF8B891A4
:100B80000024A9F1040B23460F2709F1040AABF155
:100B9000040EC9E00125A5402A40AA427DD1674E36
:100BA000D1F804C0ACEB0608B44532D014DCBCF17B
:100BB000030F3AD009DCBCF1000F2AD0BCF1010FC1
:100BC0001CD0BCF1020F31D11DE0BCF1110F17D0C8
:100BD000BCF1120F2AD119E0B8F5881F19D006DC34
:100BE000B8F5803F15D0B8F5801F1FD111E0B8F5DA
:100BF000001F0ED0B8F5041F18D10AE0CB6815E02D
:100C0000CB681B1D12E0CB6808330FE0CB680C33B8
:100C10000CE08B682BB1012B4FF0080303D045612A
:100C200004E0042302E0056100E00023FF2A01D86C
:100C3000064601E000F104064FEA840501D9A5F15A
:100C40002005D6F8008007FA05FC28EA0C0803FA0C
:100C500005F548EA0508C6F800804D68ED0062D544
:100C6000374DAE6946F00106AE61AD6924F003066A
:100C700005F001050095334D06EB050CDCF8085036
:100C8000A607360F07FA06F825EA0805DFF8B88048
:100C9000404503D14FF0000817E044E0DFF8AC8096
:100CA000404502D14FF001080FE0DFF8A480404535
:100CB00002D14FF0020808E0DFF89880404502D1E9
:100CC0004FF0030801E04FF0040808FA06F848EA7C
:100CD0000508CCF808804D68D9F80060ED024D4653
:100CE00001D5164300E096432E604D68DAF80060A7
:100CF000AD02554601D5164300E096432E604D687F
:100D0000DBF80060AD035D4601D5164300E0964375
:100D10002E604D68DEF80060ED03754601D5164380
:100D200000E096432E60641C0D682A46E5407FF47F
:100D300031AFBDE8F88F0000080401400000111039
:100D4000001002400000014000080140000C01407A
:100D500000100140001401400AB10161704709040C
:100D6000FBE7000001488068704700000C0000208D
:100D70000248816802781144816070470C000020AD
:100D8000074810B5016841F010010160032000F030
:100D9000A1F80F2000F006F800F04AF8002010BD7E
:100DA0000020024030B505461C4887B0816941F4F7
:100DB00000618161806906A900F40060009001A8CB
:100DC00000F0A6F900F0D4F91549164AB0FBF1F18C
:100DD0001548491E0260416040F2E7320021C0E937
:100DE00003218160816100F0BFFB040012D10E4835
:100DF00000F0E8FB04000DD1192000F03DF8102DA3
:100E000007D200222946192000F044F8074805605F
:100E100000E0012407B0204630BD00000010024071
:100E200040420F00002C0140F8010020100000207B
:100E30000F4808B5816941F001018161816901F0C4
:100E400001010091C16941F08051C161C069002276
:100E500000F0805000900F21901E00F01BF8054814
:100E6000416821F0E06141F00071416008BD00007F
:100E70000010024000000140002809DB00F01F02C2
:100E8000012191404009800000F1E020C0F80011EC
:100E900070470000F0B40E4B1B680C46C3F30223EE
:100EA000C3F10705042D00D90425191D072901D216
:100EB000002300E0DB1E012606FA05F1491E214051
:100EC00099409E40761E16403143F0BC01F062BB53
:100ED0000CED00E0064900F0070208684FF6FF033A
:100EE000184040EA0220034A10430860704700009F
:100EF0000CED00E00000FA052DE9F8430546007806
:100F0000354CC00754D0E0690026C00008D4E06921
:100F100040F08050E061E069012600F080500090D0
:100F20002E480168C90512D40168804641F48071D9
:100F30000160FFF717FF074605E000BFFFF712FF4C
:100F4000C01B642823D8D8F80000C005F6D5206A55
:100F500010F4407021D0A98801F4407181421CD066
:100F6000206A1F49012220F440700A6000220A60B2
:100F70002062C00711D0FFF7F5FE074641F288381E
:100F800008E000BFFFF7EEFEC11B414502D9032078
:100F9000BDE8F883206A8007F4D5206A696820F4E8
:100FA0004070084320621EB1E06920F08050E0618B
:100FB0002878800705D56068A96820F44040084378
:100FC00060602878C00605D56068E96820F4800074
:100FD000084360600020DBE7001002400070004022
:100FE000400442422DE9F0470F46050061D0434ED0
:100FF000306800F00700B84209D2306820F00700DE
:1010000038433060306800F00700B84251D128689A
:101010003B4C810712D5400703D5606840F4E0607F
:1010200060602878000703D5606840F46050606015
:101030006068A96820F0F000084360602878C00765
:1010400028D06868012810D02168022810D08907AC
:1010500000292EDA616821F0030101436160FFF786
:1010600081FE804641F288390DE021688903EFE76F
:101070008901EDE7FFF776FEA0EB0801494502D9AB
:101080000320BDE8F0876068696800F00C00B0EBF1
:10109000810FEFD1306800F00700B8420BD93068FB
:1010A00020F0070038433060306800F00700B84295
:1010B00001D00120E5E72878400705D56068E96898
:1010C00020F4E060084360602878000706D5606877
:1010D000296920F4605040EAC100606000F058F8CF
:1010E0006168084AC1F30311515CC84006490860B1
:1010F00006480068FFF756FE0020C2E700200240C5
:101100000010024066400008180000201000002077
:101110000F2202600C4A536803F0030343605368D4
:1011200003F0F0038360536803F4E063C360526824
:101130004FF4E06303EAD20202610448006800F061
:1011400007000860704700000010024000200240C5
:101150000448054900684968044AC1F30221515C0A
:10116000C840704718000020001002407640000878
:101170000448054900684968044AC1F3C221515C2A
:10118000C840704718000020001002407640000858
:101190000E4A51680E4801F00C03042B11D0082BA5
:1011A0000FD10C48C1F38343C903C05C0AD5516811
:1011B000084AC1F34041921E515C054A5043B0FBBE
:1011C000F1F07047044948437047000000100240A6
:1011D00000127A005640000800093D002DE9F84F42
:1011E000040070D02078C04DC00749D06868C0F3B3
:1011F0008100012807D06868C0F38100022809D166
:101200006868C00306D52868800339D5606800285F
:10121000E7D035E06068B0F5803F0BD010B1B0F595
:10122000A02F11D0286820F480302860286820F48E
:10123000802002E0286840F480302860606890B127
:10124000FFF790FD06460AE0286840F480202860F9
:10125000F0E700BFFFF786FD801B642873D828687D
:101260008003F7D50CE0FFF77DFD064605E000BFE3
:10127000FFF778FD801B6428F0D828688003F7D436
:1012800020789A4E80074FF001094FF0000839D5B9
:10129000686810F00C0F07D06868C0F3810002285E
:1012A00009D16868C00306D42868800714D520696E
:1012B000012808D110E02069B0B1C6F80090FFF70E
:1012C00051FD074605E00AE1FFF74CFDC01B02286F
:1012D000C4D828688007F7D52868616920F0F8002D
:1012E00040EAC10028600DE0C6F80080FFF73AFD33
:1012F000074604E0FFF736FDC01B022823D8286804
:101300008007F7D4207800072CD57948A169D9B196
:10131000C0F80090FFF726FD074604E0FFF722FD26
:10132000C01B02280FD8686A8007F7D571484FF4B0
:10133000FA510068B0FBF1F0009000BF0098411E28
:101340000091FAD20EE080E0C0F80080FFF70AFDBD
:10135000074604E0FFF706FDC01B022875D8686A3F
:101360008007F7D42078400760D5E8690027C000DF
:1013700008D4E86940F08050E861E869012700F08E
:10138000805000905C480168C90513D40168834609
:1013900041F480710160FFF7E5FC824606E000BF82
:1013A000FFF7E0FCA0EB0A0064284ED8DBF8000051
:1013B000C005F5D5E06801280AD008B1052813D08A
:1013C000286A20F001002862286A20F0040002E068
:1013D000286A40F001002862E06841F2883B98B139
:1013E000FFF7C0FC82460BE0286A40F00400286248
:1013F000EEE700BFFFF7B6FCA0EB0A0159455AD84B
:10140000286A8007F6D50CE0FFF7ACFC824605E0C1
:10141000FFF7A8FCA0EB0A0159454CD8286A8007C1
:10142000F6D41FB1E86920F08050E861E06988B324
:101430006968C1F38101022944D00228C6F860809E
:1014400004D0FFF78FFC044638E034E0FFF78AFC55
:10145000074604E0FFF786FCC01B02282BD828684B
:101460008001F7D4206AB0F5803F05D16868A16893
:1014700020F4003008436860D4E908010843696833
:1014800021F4741108436860C6F86090FFF76AFCA5
:10149000044606E025E000BFFFF764FC001B0228BD
:1014A00009D828688001F7D51BE000BFFFF75AFC78
:1014B000001B022802D90320BDE8F88F28688001AC
:1014C000F4D40EE00128F7D06868226A00F4803175
:1014D000914204D1616A00F47010884201D0012069
:1014E000EAE70020E8E70000001002400000424266
:1014F000800442421800002000700040704770478E
:1015000070B590F83C20012A26D0012480F83C4098
:10151000022280F83D2003685A689D6822F0700618
:101520000A6832435A600D4B02689A4208D0B2F101
:10153000804F05D00A4B9A4202D00A4B9A4204D1FE
:10154000496825F080031943916080F83D400021EF
:1015500080F83C10084670BD022070BD002C014090
:10156000000400400008004010B5040003D094F8C7
:101570003D0010B107E0012010BD002084F83C00C0
:10158000204600F01EF8022084F83D00211D20684E
:1015900000F0A8FD012084F8460084F83E0084F89D
:1015A0003F0084F8400084F8410084F8420084F849
:1015B000430084F8440084F8450084F83D0000208E
:1015C00010BD704790F83D10012901D001207047EF
:1015D000022180F83D100168CA6842F00102CA6029
:1015E00000680B49884208D0B0F1804F05D0094906
:1015F000884202D00849884204D1816801F007017D
:10160000062903D0016841F0010101600020704704
:10161000002C0140000400400008004070472DE904
:10162000F04104460068C66805694FF00007A90745
:1016300013D5B10711D5F91E01610120207720686B
:1016400080698007204602D0FFF7E8FF04E000F041
:101650007EF8204600F024F92777680716D5700732
:1016600014D521686FF004000861022020772068FB
:10167000806910F4407F204602D0FFF7CFFF04E0DE
:1016800000F065F8204600F00BF92777280715D5FC
:10169000300713D521686FF0080008610420207717
:1016A0002068C0698007204602D0FFF7B7FF04E03A
:1016B00000F04DF8204600F0F3F82777E80616D53D
:1016C000F00614D521686FF010000861082020771B
:1016D0002068C06910F4407F204602D0FFF79EFFCB
:1016E00004E000F034F8204600F0DAF82777E80745
:1016F00008D0F00706D021686FF00100086120468D
:1017000000F01EF9280608D5300606D521686FF0CE
:10171000800008612046FFF7F1FE680608D57006D4
:1017200006D521686FF040000861204600F012F9EC
:10173000A8060AD5B00608D521686FF02000086118
:101740002046BDE8F041FFF7DABEBDE8F081704702
:1017500070B5044690F83C0000260D4601280FD0D5
:10176000012084F83C006AB1042A1DD0082A2FD039
:101770000C2A3FD00126002084F83C00304670BD82
:10178000022070BD206800F0F7FC2068816941F0FC
:10179000080181612068816921F00401816120686C
:1017A00081692A69114311E0206800F00DFD20686D
:1017B000816941F4006181612068816921F480615F
:1017C0008161206881692A6941EA02218161D2E749
:1017D000206800F025FD2068C16941F00801C16161
:1017E0002068C16921F00401C1612068C1692A69CA
:1017F000114311E0206800F03FFD2068C16941F409
:101800000061C1612068C16921F48061C161206803
:10181000C1692A6941EA0221C161ACE710B504003F
:1018200003D094F83D0010B107E0012010BD002066
:1018300084F83C00204600F01FF8022084F83D00A8
:10184000211D206800F04EFC012084F8460084F839
:101850003E0084F83F0084F8400084F8410084F89A
:10186000420084F8430084F8440084F8450084F87A
:101870003D00002010BD000008B500680649884200
:1018800008D10648C16941F00201C161C06900F098
:101890000200009008BD000000040040001002405B
:1018A0007047000010B50446022249B104290ED049
:1018B000082913D094F84100012816D0012010BD4A
:1018C00094F83E000128F9D184F83E200FE094F806
:1018D0003F000128F2D184F83F2008E094F840004E
:1018E0000128EBD184F8402001E084F84120012256
:1018F000206800F033FC0F492068884203D1426C15
:1019000042F4004242642068884208D0B0F1804F1F
:1019100005D00949884202D00849884204D181682B
:1019200001F00701062903D0016841F001010160BF
:10193000002010BD002C01400004004000080040C1
:1019400000680349884201D1FFF712BA70470000CE
:10195000002C01407047704770470000F8B50168DF
:1019600004460868CA684B6910F00F0F4FF0000575
:1019700059D003F0010602F49077374365D0C107D0
:1019800005D0D10503D5616C41F0010161644107C7
:1019900005D5D90703D0616C41F00201616481076C
:1019A00005D5D90703D0616C41F0040161640107DA
:1019B00007D502F02001314303D0616C41F00801EA
:1019C0006164616C00293AD0800604D5900602D586
:1019D000204600F0A2FC20684069616CC0F38010D2
:1019E000090700D460B3204600F070FC206840690D
:1019F000400621D52068143050E8001F21F0400136
:101A000040E80012002AF5D1E06BA8B16D494163AE
:101A1000E06BFEF755FF002811D0E06B416B01B081
:101A2000BDE8F040084783060FD593060DD5204644
:101A3000BDE8F84000F071BC2046FFF78DFFF8BD0F
:101A40002046FFF789FF6564F8BD266B2023012E31
:101A50007CD1C6067AD5D60678D508684868009045
:101A600048694FF00206400640D5E16B08684068BF
:101A70000004000CE8D0A28D8242E5D9E085886997
:101A800020282DD020680C3050E8001F21F48071F0
:101A900040E80012002AF5D12068143050E8001FF9
:101AA00021F0010140E80012002AF5D1206814302D
:101AB00050E8001F21F0400140E80012002AF5D153
:101AC00084F84230256320680C3050E8001F21F074
:101AD000100140E80012002AF5D1E06BFEF7CCFEC1
:101AE0006663A08DE18D401A81B22AE0A08DE18D60
:101AF000401A81B2E08D0028A6D00029A4D0226827
:101B00000C3252E8000F20F4907042E80007002FDA
:101B1000F5D12068143050E8002F22F0010240E88F
:101B20000027002FF5D184F84230256320680C305F
:101B300050E8002F22F0100240E80023002BF5D1DE
:101B400066632046FFF707FFF8BDFFE705062BD5C4
:101B5000150629D594F841002128F5D1A068B0F5E3
:101B6000805F01D12069B0B1206A411C21622168E7
:101B700000784860E08C401E0004000CE084E3D153
:101B80002068C16821F08001C1602068C16841F00F
:101B90004001C160D8E7206A0088C0F308004860AF
:101BA000206A801C2062E5E74006CDD55006CBD5E3
:101BB000CA68204622F04002CA6084F8413000F032
:101BC00011F9C1E7BD22000870B5040004D094F8F3
:101BD0004100002510B106E0012070BD84F840509E
:101BE000204600F023F8242084F841002068C168D2
:101BF00021F40051C160204600F0F0FB206801692B
:101C000021F4904101612068416921F02A0141617C
:101C10002068C16841F40051C1606564202084F8E7
:101C2000410084F842006563002070BD70B586B045
:101C3000002400940194029403942B4E03682B49D2
:101C4000022003222A4DB34221D18B6943F4804301
:101C50008B618B6903F4804304938B6943F0040325
:101C60008B618969039201F0040104910102CDE9BD
:101C7000001069462846FEF77FFF2815CDE90004CD
:101C8000694628460294FEF777FF06B070BD194EEC
:101C9000B342FAD1CB6943F40033CB61CB6903F48F
:101CA000003304938B6943F004038B6189690392C9
:101CB00001F0040104910421CDE900106946284691
:101CC000FEF75AFF0820CDE9000469462846029431
:101CD000FEF752FF002205212620FFF7DBF8262021
:101CE000FFF7CAF8D1E700000038014000100240B9
:101CF000000801400044004090F84230202B01D001
:101D00000220704721B11AB10023036300F0C2BB67
:101D10000120704710B50068074988420AD107487A
:101D2000007801F073FCBDE810400122034904482B
:101D3000FFF7E2BF10BD0000004400401C0000207F
:101D4000B00100202DE9F843044690F84100984680
:101D500016460D46202802D00220BDE8F88385B142
:101D60007EB100206064212084F84100FEF7FAFF74
:101D7000A6848146E684A0682027B0F5805F02D063
:101D800003E00120E9E7206910B12E4600250EE0AE
:101D900000260CE08021204600F097FBA8B9C6B1D0
:101DA00016F8010B21684860E08C401EE084E08C4E
:101DB0004B464FF00002CDF800800028EAD14FF0EA
:101DC0004001204600F081FB40B184F841700320BF
:101DD000C3E735F8020BC0F30800E3E784F841706D
:101DE0000020BAE77047FEE7022208490848FEF7DC
:101DF000BDFC0C210748FFF755FD06495A2009682C
:101E00000864012000F0FBFCFBE700002400002038
:101E1000AC00002020010020FEB5002415480094ED
:101E2000019413490294016089158160047304755B
:101E300002250561C9024460C161FEF7C3FB08B118
:101E4000FEF73CFB0126CDE90046694609480294AD
:101E5000FEF736FB08B1FEF731FBCDE900656946B8
:101E60000448FEF72DFB002801D0FEF727FBFEBD3E
:101E700000240140AC000020094808B5416941F048
:101E8000010141614069002200F00100009005213C
:101E90000B20FEF7FFFFBDE808400B20FEF7ECBF6C
:101EA0000010024010B50B4A00210B4800F0E2FC84
:101EB0000A4C084A002120602432094800F0DAFC6C
:101EC000044A606048320021064800F0D3FCA0605C
:101ED00010BD0000E83F00083D2000080000002081
:101EE00097270008E91D000870B586B0002418483F
:101EF0000094019402940394816941F0100181617E
:101F0000816901F010010491816941F02001816132
:101F1000816901F020010491816941F0040181612E
:101F200080690C4E00F004004FF40055049000222C
:101F300029463046FEF710FF01200095CDE9010447
:101F40000220039069463046FEF716FE06B070BDCB
:101F5000001002400010014010B58AB00024079420
:101F60001C2168460894FEF742F91648144901609E
:101F700041F61F41C0E901146421C0E903148461E2
:101F8000FFF74CFC08B1FEF799FA7020CDE9070481
:101F900007A90C48FFF7B4FA08B1FEF78FFA6020E2
:101FA000CDE9000402940C22694606480494FFF728
:101FB000CFFB002801D0FEF781FA0AB010BD000067
:101FC00000040040200100200C4810B50A490160BF
:101FD0004FF4E1314160002181600C22C160C0E911
:101FE00004128161C161FFF7EFFD002803D0BDE855
:101FF0001040FEF763BA10BD0038014068010020B0
:102000000C4810B50A4901604FF4E13141600021EC
:1020100081600C22C160C0E904128161C161FFF7D7
:10202000D3FD002803D0BDE81040FEF747BA10BD2D
:1020300000440040B0010020FEE7FEE7012000F070
:10204000DEFBFBE710B54FF0E020006901F016FE63
:10205000012803D0BDE8104001F044BB10BD30B5ED
:1020600093B028216846FEF7C2F814210AA8FEF7AB
:10207000BEF8002501200F951095119501041295C9
:102080008DE8230004904FF4E010CDE908100224FD
:1020900007946846FFF7A2F808B172B6FEE70AA9EE
:1020A0000F2081E831004FF48060CDE90D05022159
:1020B0000AA8FEF797FF08B172B6FEE74FF400409A
:1020C00011900F940FA8FEF717FF002801D072B6E9
:1020D000FEE713B030BD70470148FFF7A0BA00001B
:1020E000F8010020F0B50268194B1A4C1A4D4FF058
:1020F0008047984205D0B84203D0A04201D0A84200
:1021000003D122F070064A683243984205D0B842A3
:1021100003D0A04201D0A84203D122F44074CA687F
:1021200022434C6922F08002224302608A68C26224
:102130000A688262984201D1096901630121416103
:102140000169C90703D0016921F001010161F0BDF6
:10215000002C0140000400400008004010B501F0D0
:102160001F030121046A99408C430462016A9A406A
:102170001143016210BD000030B5036A026A22F00B
:10218000010202624268846924F073050C682C43E2
:1021900023F002058B682B430A4DA8420BD123F094
:1021A0000805CB6822F440722B434D6923F00403E9
:1021B00015438A692A434260846149684163036226
:1021C00030BD0000002C014030B5026A036A23F0E4
:1021D00010030362436884690D6824F4E64444EA0A
:1021E00005248D6822F0200242EA05120B4DA84218
:1021F0000ED1CD6822F0800242EA05124D6923F427
:10220000406343EA85038D6922F0400243EA850377
:102210004360846149688163026230BD002C0140E3
:1022200030B5036A026A22F4807202624268C469AD
:1022300023F4007324F073050C682C438D6843EA83
:1022400005230C4DA8420ED1CD6823F4006343EA68
:1022500005234D6922F4405242EA05128D6923F4A8
:10226000806342EA05124260C4614968C163036247
:1022700030BD0000002C014030B5046A026A22F42F
:10228000805202624268C3690D6823F4E64343EA60
:1022900005238D6824F4005444EA0534064DA84211
:1022A00004D14D6922F4804242EA85124260C36142
:1022B00049680164046230BD002C014010B5406AD9
:1022C0000021C185C184FFF747FB10BD01680C31B7
:1022D00051E8002F22F4907241E80023002BF5D141
:1022E0000168143151E8002F22F0010241E8002377
:1022F000002BF5D1016B012909D101680C3151E89E
:10230000002F22F0100241E80023002BF5D12021FC
:1023100080F8421000210163704708B590F8421020
:10232000222901D0022008BD82684FF480539A42CE
:1023300001D1016921B1816A9A421BD04AB10AE0F8
:102340000268816A5268C2F308020A80816A891CA5
:1023500008E0026972B10268526802F07F020A70F6
:10236000816A491C8162C18D491E0904090CC1851D
:1023700003D01BE002685268F1E70168CA6822F0E6
:102380002002CA600168CA6822F48072CA600168CB
:102390004A6922F001024A61202180F8421000219E
:1023A0004163026B012A03D0FFF7B4FC002008BD93
:1023B000016301680C3151E8002F22F0100241E85E
:1023C0000023002BF5D101680A68D20602D50A68FD
:1023D00049680091818DFFF7BEFAE7E770B50446C2
:1023E00000680169E26821F44051114301612169EB
:1023F000A0680843616908432168CA6841F20C6318
:102400009A430243CA6020684169A26921F440717D
:10241000114341611E492068884202D1FEF7A8FE9F
:1024200001E0FEF795FE00EBC00101EB00126068D1
:1024300064218000B2FBF0F3B3FBF1F36FF01806F8
:102440007343B2FBF0F5B2FBF0F605EB83053223E4
:1024500003EB0515B5FBF1F5B6FBF1F605F0F0055C
:1024600005EB0615B2FBF0F6B2FBF0F0B0FBF1F0B5
:102470006FF01802504306EB800003EB0010B0FB36
:10248000F1F0216800F00F002844886070BD000062
:102490000038014081628285C28500214164222189
:1024A00080F84210016921B10168CA6842F4807263
:1024B000CA6001684A6942F001024A610068C16865
:1024C00041F02001C160002070472DE9F843984693
:1024D00017460D460446089E24E0701C22D0FEF7E5
:1024E00041FCA0EB0800B0421AD8CEB12068C16808
:1024F000490717D5802D15D0402D13D00168C94349
:1025000009070FD401680025406800902046FFF7B6
:10251000DDFE0820606484F840500120BDE8F883A7
:102520000320FBE72068006835EA000004D00020A3
:10253000B842D2D00020F1E70120F9E70148FFF7C7
:102540000DBA0000B0010020FEE700000FB4054BFB
:1025500010B503A9044A029800F03CF810BC5DF8DD
:1025600014FB0000A9270008A80000200FB4084BA6
:1025700010B504A902AA039800F02CF8044602A999
:10258000002000F003F9204610BC5DF814FB0000A9
:102590008D2700080907090E002804DB00F1E02060
:1025A00080F80014704700F00F0000F1E02080F880
:1025B000141D704702E008C8121F08C1002AFAD192
:1025C00070477047002001E001C1121F002AFBD1B3
:1025D000704700002DE9FF4F8BB09A460F46054625
:1025E000002606E025280BD052460D9990476D1C19
:1025F000761C28780028F5D10FB03046BDE8F08F62
:102600000024A0460122604900E0044315F8013F80
:10261000203B02FA03F00842F7D128782E2817D180
:1026200015F8010F44F004042A280ED06FF02F0291
:102630002878A0F1300109290AD808EB880102EBBB
:10264000410100EB01086D1CF2E757F8048B6D1C8B
:10265000287869283ED006DC0028CDD063280BD02E
:10266000642804D136E0732810D075284BD0524628
:102670000D999047761C85E017F8040B8DF8000043
:1026800000208DF80100E946012003E057F8049B83
:102690004FF0FF3061074FF0000401D40AE0641CE2
:1026A00044450DDA8442FADB19F804100029F6D10A
:1026B00006E0641C8442FCDB19F804100029F8D100
:1026C000264404E019F8010B52460D999047641E08
:1026D000F8D257E001CF4FF00A0B002802DA40424F
:1026E0002D2102E0210504D52B218DF82410012194
:1026F00003E0E10705D02021F7E70DF1200908915B
:102700000CE00021F9E701CF4FF00A0BF9E7594639
:10271000FDF778FD01F1300209F8012D0028F6D10E
:10272000ADEB090000F1200B600701D44FF0010868
:10273000D84502DDA8EB0B0000E000208046002415
:1027400006E009A85246005D0D999047641C761C6E
:1027500008988442F5DB04E0302052460D999047FA
:10276000761CB8F10001A8F10108F5DC05E019F8C4
:10277000010B52460D999047761CBBF10001ABF15D
:10278000010BF4DC6D1C34E7092801000A68531CB6
:102790000B6010707047FDF751FEFDF7FDFD012045
:1027A00000F02DF8F9E7000013B54FF6FF73012292
:1027B00069460248FFF7C6FA00981CBD6801002070
:1027C0000248002101804180818070474002002042
:1027D000FEF7D6FAFFF743FCFFF786FBFFF74CFB4B
:1027E000FFF70EFCFFF7F0FBFFF716FBFFF7B4FB5C
:1027F00000F012F8FFF756FB00F020F8FEE710B5E6
:10280000EFF3058111B16FF0050403E0002408B176
:1028100000F016FE204610BDEFF3058010B16FF0FA
:10282000050070470448016811B14FF0FF30704750
:1028300001210160002070477800002010B5EFF3FF
:10284000058010B16FF0050010BD0848016801292E
:1028500002D04FF0FF3010BD054A002182F8141D50
:102860000221016000F054FE002010BD780000201D
:102870000BE000E02DE9FF414FEA01034FF00005B6
:10288000EFF30581039549BB40B38027182100244D
:102890004AB3166806B1344696691EB13146761EB3
:1028A000382E02D21679F60703D0002004B0BDE816
:1028B000F081566906B1B708D2F808C0BCF1000F24
:1028C0000DD0D5685C2D18D312693AB136B18DE8B8
:1028D00006103A46214601F0A6F903900DE0D668AD
:1028E0005EB912694AB903AACDE90012BAB221460B
:1028F00001F06CF9012800D003950398D6E7000099
:102900002DE9F041134C0F460546E6682068001D8E
:1029100000F062FC681C07D137B12168BDE8F041C6
:102920000D48091D00F0A8BC20683544B54245603B
:10293000216805D2A06BBDE8F041091D00F084BC00
:10294000606B091D00F080FCA06A854200D2A56280
:10295000BDE8F08128000020900900202DE9F04119
:10296000054600F095FC2D4CA068401CA060206836
:102970002B4F10B1606930B32BE02560A0680128AF
:1029800027D1002606EB860007EB800000F04EFC06
:10299000761C382EF6D3234800F048FC214814302A
:1029A00000F044FC1F48283000F040FC1D483C303B
:1029B00000F03CFC1B48503000F038FC19486063C4
:1029C0001430A06305E02068E96AC06A884200D834
:1029D0002560606A401C60626864E86A2169884218
:1029E00000D9206100EB800007EB8000291D00F07A
:1029F00043FC00F06DFC606900280CD02068E96A97
:102A0000C06A884207D208494FF080500860BFF37F
:102A10004F8FBFF36F8FBDE8F081000028000020CA
:102A2000E00400204009002004ED00E038B500F08B
:102A30002FFC104C2068C8B90F4800F0F7FB0E4877
:102A4000143000F0F3FB0C48E060143020610A4BB6
:102A50000020F03B009003F1500210210A2000F00A
:102A600057FE206010B105A100F0B4FCBDE838406D
:102A700000F02EBC64000020940A0020546D7251B6
:102A80000000000030B4026C0B46002A0BD0C16875
:102A90001144C1608468A14201D30168C16030BCA7
:102AA0001846FDF78BBB30BC70472DE9F041856BB4
:102AB000174604460026026C82B1C7B1E068FDF7F4
:102AC0007DFBE168206C091AE1602268914202D224
:102AD000A168081AE060022F16D017E02068A8B994
:102AE000A06801F043F906460020A0600EE060688F
:102AF000FDF764FB216C606808446060A16888424F
:102B000004D32068606001E005B16D1E6D1CA563F3
:102B10003046BDE8F08110B5044690F8590058B130
:102B200001280CD002280FD0502080F31188BFF369
:102B30004F8FBFF36F8FFEE7206B00F0DDFB204669
:102B4000BDE8104000F0D8BB10BD000010484FF4A5
:102B50004061420706D0C01D0D4920F00700411A10
:102B6000C1F540610B4A00230144C2E90003083962
:102B7000183A21F0070111604B600B600B1AC0E995
:102B8000001393604FF000405360506170470000A5
:102B90007411002094000020144E154CA6F29C479E
:102BA0004FF08058DFF84C9012E000BF00F070FB4F
:102BB000F068C568281D00F00FFBA068401EA060EB
:102BC0006068401E606000F083FB2846FFF7A3FFAB
:102BD00060680028EAD138680128F9D9C9F800806E
:102BE000BFF34F8FBFF36F8FF2E700007C09002027
:102BF0002800002004ED00E070B51D46049C51B192
:102C0000C4F80020C4E90F010121204600F0B4FD02
:102C100084F84C5070BD2460F4E700002DE9F05FAB
:102C20008846DDE90B941546834691009A460A9E34
:102C3000A522206BFDF7D4FA6FF00301206B01EBA6
:102C40008501084420F00707780707D0502080F35B
:102C50001188BFF34F8FBFF36F8FFEE70025B8F1E8
:102C6000000F0FD05FF00000221818F8001082F853
:102C7000341018F8001011B1401C1028F4D384F857
:102C8000435001E084F83450382E00D33726E662F2
:102C9000C4E91365201D00F0D4FA04F1180000F017
:102CA000D0FA2461C6F138006462A061656584F8D9
:102CB000585052465946384600F05AFA2060B9F149
:102CC000000F01D0C9F80040BDE8F09F30B51149B0
:102CD00000E011460A688242FBD34B685C188442CC
:102CE00003D1406818444860084643681C18944261
:102CF00009D1084C183C2468A24209D052681A44F1
:102D000042600A6812680260814200D0086030BDEB
:102D10000460F9E79400002070B5002441600B4D79
:102D20000061914206D8D11A8269914206D2011DF2
:102D3000286907E09A4203D2994201D3012403E0B3
:102D4000011DE86800F080FA204670BD6400002094
:102D500010B5044600F09CFAA06B28B15FF00004A7
:102D600000F0B6FA204610BD0124F9E730B589B06D
:102D70003C4D6EE00498002806DADDE90601059A6C
:102D800090470498002864DB069C606910B1201D00
:102D900000F022FA03A800F0D7F8024604980A28A7
:102DA00057D2DFE800F00505052D334A05052D3320
:102DB00094F8280040F0010084F828000599A069E3
:102DC000059B01442046FFF7A7FF68B3216A204610
:102DD000884794F8280040073BD5002000900598CC
:102DE000A169002342181946204601F0C9F8D8B954
:102DF000502080F31188BFF34F8FBFF36F8FFEE732
:102E000014F8280F20F00100207022E094F8280028
:102E100040F0010084F828000598A06128B18118CD
:102E200013462046FFF778FF13E0502080F3118807
:102E3000BFF34F8FBFF36F8FFEE794F82800810731
:102E400003D4204600F058FA03E020F0010084F893
:102E50002800002204A9286800F0E2FD002889D19A
:102E600009B030BD640000202DE9FC410F46054645
:102E700000F092FB01A800F067F80446019818B131
:102E800000F0ECFFBDE8FC81254EAFB13069006871
:102E9000D0B30027291B3A46306800F0AFFA00F0A3
:102EA000DDFF0028EED11F494FF080500860BFF3CE
:102EB0004F8FBFF36F8FE5E7A542EBD800F0CEFF51
:102EC000F0682746C068C468201D00F085F994F8B2
:102ED0002800410719D5A0692B4641193A462046DA
:102EE000FFF71AFFA8B100200346014600902A46CA
:102EF000204601F045F860B9502080F31188BFF3F7
:102F00004F8FBFF36F8FFEE707E020F0010084F8DA
:102F10002800216A20468847B4E70127BAE7000065
:102F20006400002004ED00E00648416B096829B107
:102F3000416BC968C9684968816270474FF0FF31C9
:102F4000FAE700002800002070B5054600F0A4FE56
:102F5000064E0446B068844203D200F009F801200E
:102F600000E0002028602046B46070BD64000020AE
:102F7000F8B5194D20E0C068C4680668201D00F04F
:102F80002BF9216A2046884794F82800400713D57A
:102F9000A0693044B04206D924616060211DE86810
:102FA00000F052F908E00020034601460090324646
:102FB000204600F0E5FF38B1E86801680029DAD161
:102FC0002969C5E90310F8BD502080F31188BFF3CB
:102FD0004F8FBFF36F8FFEE7640000200848406802
:102FE000401C4FF0500080F3118804D0BFF34F8F86
:102FF000BFF36F8FFEE7BFF34F8FBFF36F8FFEE717
:103000009C000020074CE068016841B1C0680021C5
:10301000D0F80000FFF728FFFFF7A8FEF3E7012133
:103020000020F7E7640000202DE9F041044600F09D
:103030002FF994F9455004F1240609E0606A48B17B
:10304000304600F0D3FE08B100F028FA6D1E6DB2D4
:10305000002DF3DC4FF0FF3684F8456000F038F9BE
:1030600000F016F994F9445004F1100709E02069C2
:1030700048B1384600F0BAFE08B100F00FFA6D1EF4
:103080006DB2002DF3DC84F84460BDE8F04100F03F
:103090001FB900002DE9F0410546002700F07CFA39
:1030A000324E306808B9FFF751FD706905424ED1C4
:1030B000C5B3083568070ED005F00700C0F1080059
:1030C0000544680707D0502080F31188BFF34F8F65
:1030D000BFF36F8FFEE72DB37068854237D8234862
:1030E000183001460C6801E020460C466168A94290
:1030F00002D221680029F7D131688C4227D00768B5
:103100002168016060680837411B10290FD96019D8
:10311000420708D0502080F31188BFF34F8FBFF3D0
:103120006F8FFEE713E041606560FFF7CFFD6168D8
:103130007068401A7060B268904200D2B0607069E6
:1031400001430020C4E90001F068401CF06000F079
:1031500085FE780707D0502080F31188BFF34F8F8A
:10316000BFF36F8FFEE73846BDE8F0817C0000209A
:1031700010B5031F4FF080741C601B1F21F001016C
:103180001960191F024B0B60143940380A6010BDDA
:10319000DD2F000810B5044602E0641C00F010F8B2
:1031A000207808B1002CF8D1FF2000F009F8FF20AA
:1031B00000F006F8BDE81040FF2000F001B8000064
:1031C00008B50A238DF80000012269460148FEF780
:1031D000B9FD08BDB0010020D0E9013201699A6053
:1031E000D0E901235A604A68824201D182684A606C
:1031F000002202610868401E0860086870470000ED
:10320000034B036003F15C0008608020106070478E
:10321000BC0A0020044B036003F15C0008604FF41B
:103220008070106070470000180D002000F1080148
:103230004FF0FF32C0E90112C1600161002101605D
:10324000704700210161704730B50B685A1C02D0ED
:1032500000F1080202E0026904E022465468256891
:103260009D42FAD953684B6099608A605160086149
:103270000168491C016030BD42684A6093688B60F8
:1032800093685960916008610168491C016070474A
:10329000502080F31188BFF34F8FBFF36F8F0A491F
:1032A0004868401C486001280CD10848006810F0AC
:1032B000FF0F07D0502080F31188BFF34F8FBFF36B
:1032C0006F8FFEE7704700009C00002004ED00E0D7
:1032D0000849486828B1401E486001D180F3118830
:1032E0007047502080F31188BFF34F8FBFF36F8F6B
:1032F000FEE700009C00002070B500282AD0164D83
:10330000A0F1080460686969084207D1502080F381
:103310001188BFF34F8FBFF36F8FFEE722683AB17A
:10332000502080F31188BFF34F8FBFF36F8FFEE7FC
:103330008843606000F030F960686968084468603C
:103340002046FFF7C3FC2869401C2861BDE8704097
:1033500000F084BD70BD00007C0000204FF0E02034
:1033600000210161816105494FF47A720968B1FB5E
:10337000F2F1491E416107210161704718000020E8
:1033800010B5FCF705FF114910280ED300F1E0201D
:1033900090F8F0030A78904207D2502080F3118809
:1033A000BFF34F8FBFF36F8FFEE70948006889684E
:1033B00000F4E060884207D9502080F31188BFF301
:1033C0004F8FBFF36F8FFEE710BD00009C00002001
:1033D0000CED00E010B5084B002200BF53F832405E
:1033E0001CB1521C082AF9D310BD43F8321003EB6C
:1033F000C201486010BD0000A004002070B5154651
:103400000E460446FFF744FF94F944100020491C7F
:1034100001D184F8440094F94510491C01D184F885
:103420004500FFF755FFA06B28B92A46314604F145
:10343000240000F051F82046BDE87040FFF7F4BDCD
:1034400010B5020014D00F48006B38B1502080F343
:103450001188BFF34F8FBFF36F8FFEE700F09CF82A
:1034600000211046FFF74CFA00F0F8FC002807D1C5
:1034700005494FF080500860BFF34F8FBFF36F8F47
:1034800010BD00002800002004ED00E002490A6A97
:103490000260C9684160704728000020014901208E
:1034A000C86170472800002010B50C4650B109498A
:1034B00009681831FFF7C8FE2046BDE81040012119
:1034C000FFF71EBA502080F31188BFF34F8FBFF370
:1034D0006F8FFEE72800002070B514460D4668B1D6
:1034E0000A4909681831FFF7C7FE0CB14FF0FF35E4
:1034F00021462846BDE87040FFF702BA502080F30D
:103500001188BFF34F8FBFF36F8FFEE728000020B5
:1035100030B587B00024039405AA04A903A8049435
:10352000FFF76EFEDDE903010094CDE901100023F1
:1035300015A11748059A00F076FB164D0028E862A1
:103540001FD000F0EDFC012809D0401C19D15020FB
:1035500080F31188BFF34F8FBFF36F8FFEE75020CA
:1035600080F31188BFF34F8FBFF36F8F4FF0FF30A1
:10357000A86201206861EC6007B0BDE8304000F04F
:103580005DB807B030BD000049444C450000000064
:10359000992B0008280000200248016B491C016398
:1035A0007047000028000020164810B5016B11B1CB
:1035B0000121C16110BD0021C1610169124A01E010
:1035C000B9B1491E01EB810352F82330002BF7D02B
:1035D00001EB810302EB830202F1080453685B688C
:1035E0005360A34201D15B685360DA6802600161F5
:1035F00010BD502080F31188BFF34F8FBFF36F8F42
:10360000FEE7000028000020E00400200A4910B571
:103610008B884FF4FA7293420CD24C888B1DE05485
:103620004888401CB0FBF2F302FB130048808888F6
:10363000401C888010BD0000400200201CB52649B7
:1036400008780190FF20087008788DF800009DF838
:1036500000009DF8002000F0F000904207D05020BC
:1036600080F31188BFF34F8FBFF36F8FFEE79DF894
:1036700000001A4C00F0500020700720A06005E008
:103680009DF8002052008DF80020401E9DF800207B
:103690001206F5D4A060032807D0502080F31188CB
:1036A000BFF34F8FBFF36F8FFEE74FF44070A06002
:1036B000019808700A48016841F4700101600168CE
:1036C00041F070410160FFF749FE00206060FCF7A7
:1036D00029FD00201CBD000000E400E09C0000204B
:1036E00020ED00E010B5502080F31188BFF34F8F1C
:1036F000BFF36F8F00F0D6FA18B104494FF0805035
:103700000860002080F3118810BD000004ED00E087
:1037100038B5049D18B153B1CAB181B120E0502031
:1037200080F31188BFF34F8FBFF36F8FFEE75020F8
:1037300080F31188BFF34F8FBFF36F8FFEE75020E8
:1037400080F31188BFF34F8FBFF36F8FFEE739B15E
:10375000502080F31188BFF34F8FBFF36F8FFEE7C8
:1037600050241C46012384F846302B460094FFF772
:1037700043FA204638BD000070B50D46040025D040
:10378000FFF786FDD4E90F20216802FB0011A1603C
:103790000021A163216861600A46D4E90F01401E3F
:1037A00000FB0121E16021464FF0FF3001F8440F9A
:1037B000487004F110008DB1FFF738FD04F12400CA
:1037C000FFF734FDFFF784FD012070BD502080F32A
:1037D0001188BFF34F8FBFF36F8FFEE72169002978
:1037E000F0D000F003FB0028ECD004494FF08050EB
:1037F0000860BFF34F8FBFF36F8FE3E704ED00E086
:103800002DE9FF4782B01D468A464FF000080400AC
:1038100003D0BAF1000F08D011E0502080F31188D6
:10382000BFF34F8FBFF36F8FFEE7206C38B150208E
:1038300080F31188BFF34F8FBFF36F8FFEE7022D28
:103840000AD1E06B012807D0502080F31188BFF324
:103850004F8FBFF36F8FFEE700F010FA3F4F4FF02E
:1038600000094FF0805648B9049838B1502080F3D1
:103870001188BFF34F8FBFF36F8FFEE7FFF708FD8F
:10388000A06BE16B884207D3022D05D00498D0B11C
:10389000B8F1000F1AD01EE02A4651462046FFF725
:1038A00004F9616A19B104F1240000F09FFA20B113
:1038B0003E60BFF34F8FBFF36F8FFFF709FD01200D
:1038C00006B0BDE8F087FFF703FD22E06846FFF78A
:1038D000DDFD4FF00108FFF7FBFCFFF75DFEFFF792
:1038E000D7FC94F94400401C01D184F8449094F929
:1038F0004500401C01D184F84590FFF7E9FC04A97C
:10390000684600F029F930B12046FFF78DFB00F042
:10391000A5FA0020D4E7FFF7BBFCA06BE16B88425F
:1039200013D1FFF7D5FC04F110000499FFF7BCFD9B
:103930002046FFF779FB00F091FA00289ED13E6007
:10394000BFF34F8FBFF36F8F98E7FFF7C1FC20469F
:10395000FFF76AFB00F082FA90E7000004ED00E058
:103960002DE9F0471F4690468946040003D0B9F17F
:10397000000F08D011E0502080F31188BFF34F8F63
:10398000BFF36F8FFEE7206C38B1502080F31188B1
:10399000BFF34F8FBFF36F8FFEE7022F0AD1E06BAB
:1039A000012807D0502080F31188BFF34F8FBFF359
:1039B0006F8FFEE7FFF7E4FC5020EFF3118680F3F2
:1039C0001188BFF34F8FBFF36F8FA06BE16B8842FD
:1039D00006D3022F04D0002086F31188BDE8F087BB
:1039E00094F94550A06B3A4649462046FFF75DF8EA
:1039F000681C04D06D1C84F845500120ECE7606A17
:103A00000028FAD004F1240000F0F0F90028F4D0E6
:103A1000B8F1000FF1D00121C8F80010EDE7000067
:103A20002DE9F747002683B08A46040003D0BAF197
:103A3000000F08D011E0502080F31188BFF34F8FA2
:103A4000BFF36F8FFEE7206C38B1502080F31188F0
:103A5000BFF34F8FBFF36F8FFEE700F00FF9DFF872
:103A6000F4804FF000094FF0805748B9059838B1FD
:103A7000502080F31188BFF34F8FBFF36F8FFEE7A5
:103A8000FFF706FCA56BC5B151462046FEF7FAFFCD
:103A90006D1EA563206950B104F1100000F0A6F975
:103AA00028B1C8F80070BFF34F8FBFF36F8FFFF7D7
:103AB0000FFC012006B0BDE8F087059808B11EB1E3
:103AC00006E0FFF705FC27E06846FFF7DFFC01266C
:103AD000FFF7FEFBFFF760FDFFF7DAFB94F9440008
:103AE000401C01D184F8449094F94500401C01D158
:103AF00084F84590FFF7ECFB05A9684600F02CF828
:103B0000002820460AD0FFF78FFA00F0A7F92046D8
:103B1000FFF71EF90028B3D00020CBE7FFF718F914
:103B200090B104F124000599FFF7BEFC2046FFF791
:103B30007BFA00F093F90028A2D1C8F80070BFF317
:103B40004F8FBFF36F8F9BE72046FFF76DFA00F0B2
:103B500085F995E704ED00E02DE9F0410C460500FC
:103B600011D0C4B1FFF794FB174BDA686E68206878
:103B7000911B471C17D02F681B6A9F4219D0964291
:103B800017D8012410E0502080F31188BFF34F8F25
:103B9000BFF36F8FFEE7502080F31188BFF34F8F84
:103BA000BFF36F8FFEE70024FFF792FB2046BDE8CE
:103BB000F081884205D9401A20602846FFF766FC4C
:103BC000F1E700202060DCE7280000202DE9FF5FFE
:103BD0008346DDE90E87994616468A469000FFF730
:103BE00059FA05001CD05C20FFF754FA040014D0E9
:103BF0000020256384F85900CDE90240CDE9008713
:103C00004B46324651465846FFF708F82046FEF725
:103C1000A5FE012004B0BDE8F09F2846FFF76CFB2D
:103C20004FF0FF30F6E7F0B585B0DDE90B640A9D93
:103C3000A6B1DCB15C2700972663022684F85960A0
:103C4000002604AFCDE90246CDE90057FEF7E6FFB6
:103C50002046FEF783FE049805B0F0BD502080F3A7
:103C60001188BFF34F8FBFF36F8FFEE7502080F3B3
:103C70001188BFF34F8FBFF36F8FFEE7054841698F
:103C800019B1006B18B10020704701207047022065
:103C900070470000280000200148C06870470000FD
:103CA000280000202DE9F0412E4C0027206B28B180
:103CB000A069401CA0613846BDE8F081E668761C2A
:103CC000E66013D1606B006838B1502080F3118832
:103CD000BFF34F8FBFF36F8FFEE7606BA16B616324
:103CE000A063206A401C2062FFF71EF9A06ADFF87B
:103CF0007880864209D3606B0068A0B1606BC068B1
:103D0000C5686868864211D2A0622068C06A00EB6C
:103D1000800158F82100012800D90127E069002816
:103D2000C9D00127C7E74FF0FF30EDE7281DFFF7A7
:103D300053FAA86A18B105F11800FFF74DFAE86ABE
:103D40002169884200D9206100EB800108EB8100E5
:103D5000291DFFF791FAE86A2168C96A8842CAD327
:103D60000127C8E728000020E004002070B5040007
:103D70004FF0000133D01B4D2868844207D05020FB
:103D800080F31188BFF34F8FBFF36F8FFEE7206D75
:103D900038B1401E2065E36CE26A9A421FD040B100
:103DA0001DE0502080F31188BFF34F8FBFF36F8F5A
:103DB000FEE7201DFFF710FAE06CE062C0F138006A
:103DC000A061E06A2969884200D92861064900EBB0
:103DD000800001EB8000211DFFF74EFA012108460B
:103DE00070BD000028000020E004002070B5C0680D
:103DF000C46854B104F118000646FFF7EDF9144DFC
:103E0000286B50B13146134815E0502080F31188DB
:103E1000BFF34F8FBFF36F8FFEE7201DFFF7DCF975
:103E2000E06A2969884200D928610B4900EB8000CB
:103E300001EB8000211DFFF71FFAE06A2968C96ABB
:103E4000884202D90120E86170BD002070BD0000E9
:103E50002800002068090020E00400202DE9F04738
:103E60002C4D00242746286B38B1FFF711FA286B38
:103E7000401E2863286B40B146E0502080F3118833
:103E8000BFF34F8FBFF36F8FFEE7A968224E01206B
:103E9000D1B3A6F5916980463068E0B1F068C46896
:103EA00004F11800FFF798F9201DFFF795F9E06A73
:103EB0002969884200D9286100EB800109EB810063
:103EC000211DFFF7D9F9E06A2968C96A8842E3D35E
:103ED000C5F81C80E0E70CB1FFF726F8AC694CB1DF
:103EE0004FEA0806FFF7DEFE00B1EE61641EF9D16D
:103EF0000020A861E86938B108490127380708603F
:103F0000BFF34F8FBFF36F8FFFF7E2F93846BDE87D
:103F1000F0870000280000206809002004ED00E080
:103F200010B586B0FEF782FD114C2068B8B10020B4
:103F30000390049005AA04A903A8FFF76BF9DDE933
:103F4000032102208DE8070000230AA10B48059AEF
:103F5000FFF769FE606010B106B0012010BD50206F
:103F600080F31188BFF34F8FBFF36F8FFEE7000020
:103F700064000020546D7220537663000530000801
:103F80002DE9FF411E46134602000A9D4FF0000036
:103F900016D0144C2768002F0FD0CDE900130292E1
:103FA000062917DAFFF76AFE02284FF000030FD048
:103FB000002269462068FFF723FC04B0BDE8F081C9
:103FC000502080F31188BFF34F8FBFF36F8FFEE750
:103FD0002A46EEE70023324669463846FFF7C0FC22
:103FE000EBE7000064000020A04000080000000093
:103FF00000000000000000000000000000020000BF
:1040000018000000000000000000000090400008C0
:1040100000000000000000000000000000000000A0
:10402000000400000F00000000000000000000007D
:1040300080400008000000000000000000000000B8
:104040000000000000040000080000000000000064
:1040500000000000010202030405060708090A0B1C
:104060000C0D0E0F101000000000000000000102F7
:104070000304060708090000000001020304000011
:104080004A6F79737469636B5F5461736B000000EE
:10409000646973706C61795F5461736B0000000038
:1040A00064656661756C745461736B00CC40000884
:1040B00000000020AC000000B42500087841000892
:1040C000AC000020CC200000C42500080000000047
:1040D00000000000000000000100000010000000CF
:1040E0000000000000127A00000000000000000044
:1040F00000000000000000000000000000000000C0
:1041000000000000000000000000000000000000AF
:10411000000000000000000000000000000000009F
:10412000000000000000000000000000000000008F
:10413000000000000000000000000000000000007F
:10414000000000000000000000000000000000006F
:10415000000000000000000000000000000000005F
:10416000000000000000000000000000AAAAAAAAA7
:08417000000000000000000047
:04000005080000ED02
:00000001FF
